:100000000C942A000C9423010C9423010C942301DA
:100010000C9423010C9423010C9423010C942301D0
:100020000C9423010C9423010C9423010C942301C0
:100030000C9423010C9423010C9423010C942301B0
:100040000C9423010C9423010C9423010C942301A0
:100050000C94230111241FBECFE5D8E0DEBFCDBF35
:0C0060000E9436000C940701F894FFCFBA
:10006C000E94120184B3876084BB80E00E94F3007D
:10007C00BC0180E090E00E9492006B017C0120E0CA
:10008C0030E0A9010E941E0188238CF020E030E0B2
:10009C0040E251E4C701B6010E94190188233CF4E7
:1000AC0085B3816085BB85B3817085BB2BC020E097
:1000BC0030E040E251E4C701B6010E941E018823E2
:1000CC008CF020E030E040EA51E4C701B6010E9418
:1000DC00190188233CF485B3826085BB85B382709B
:1000EC0085BB10C020E030E040EA51E4C701B60106
:1000FC000E941E01882334F085B3846085BB85B3D0
:10010C00847085BB2FE986E891E0215080409040B7
:08011C00E1F700C00000A9CFCB
:10012400E89409C097FB3EF490958095709561958D
:100134007F4F8F4F9F4F9923A9F0F92F96E9BB2743
:100144009395F695879577956795B795F111F8CFBF
:10015400FAF4BB0F11F460FF1BC06F5F7F4F8F4F2A
:100164009F4F16C0882311F096E911C0772321F020
:100174009EE8872F762F05C0662371F096E8862FB8
:1001840070E060E02AF09A95660F771F881FDAF70F
:0A019400880F9695879597F9089556
:10019E00990F0008550FAA0BE0E8FEEF161617068A
:1001AE00E807F907C0F012161306E407F50798F0F2
:1001BE00621B730B840B950B39F40A2661F0232B0B
:1001CE00242B252B21F408950A2609F4A140A69587
:0801DE008FEF811D811D0895C2
:1001E60027B197B1207F8F70822B982B97B986B154
:1001F600806486B93699FECF24B185B190E0982FF8
:080206008827820F911D089565
:10020E00EC010E9428010E942701CE010E942901C3
:06021E00CE010E94250143
:0E02240087B1806487B986B1876886B908956E
:0A0232000E94CF0008F481E0089557
:0A023C000E94CF0008F48FEF089530
:040246000C94000014
:04024A000E943400DA
:02024E00089511
:0202500008950F
:0202520008950D
:00000001FF
