:100000000C942A000C94A5000C94A5000C94A50057
:100010000C94A5000C94A5000C94A5000C94A500CC
:100020000C94A5000C94A5000C94A5000C94A500BC
:100030000C94A5000C94A5000C94A5000C94A500AC
:100040000C94A5000C94A5000C94A5000C94A5009C
:100050000C94A50011241FBECFE5D8E0DEBFCDBFB4
:0C0060000E9436000C949A00F894FFCF28
:10006C0081B311BA82B38FEF82BB9AB38ABB87B3C9
:10007C00816087BB84B3816084BB809915C0819BF0
:10008C0013C0869B02C0879908C088B318BA85B381
:10009C0015BA8BB381608BBBF0CF88B318BA85B31C
:1000AC0015BA8BB31BBAE9CF809915C0819913C0CF
:1000BC0086990AC0879908C085B315BA8BB31BBA49
:1000CC0088B3816088BBD9CF88B318BA85B315BA09
:1000DC008BB31BBAD2CF809B20C081991EC090B32A
:1000EC00929596959695937081E09827917080B330
:1000FC008095881F8827881F981741F08BB31BBAEF
:10010C0088B318BA85B3816085BBB7CF88B318BAEA
:10011C0085B315BA8BB31BBAB0CF88B318BA85B3F5
:08012C0015BA8BB31BBAA9CF71
:10013400EC010E94AA000E94A900CE010E94AB001B
:06014400CE010E94A7009D
:04014A000C94000011
:04014E000E943400D7
:0201520008950E
:0201540008950C
:0201560008950A
:00000001FF
