:100000000C942A000C9436000C9477000C94770022
:100010000C9477000C9477000C9477000C94770084
:100020000C9477000C9477000C9477000C94770074
:100030000C9477000C9477000C9477000C94770064
:100040000C9477000C9477000C9477000C94770054
:100050000C94770011241FBECFE5D8E0DEBFCDBFE2
:0C0060000E9472000C946000F894FFCF26
:10006C001F920F920FB60F9211242F938F939F9381
:10007C0082B3816082BB2FE38DE093E021508040FE
:10008C009040E1F700C0000082B38E7F82BB9F914D
:0E009C008F912F910F900FBE0F901F9018950F
:1000AA0085B7826085BF85B78E7F85BF8BB7806431
:0600BA008BBF789408954D
:1000C000EC010E947C000E947B00CE010E947D001A
:0600D000CE010E94790040
:0E00D60081B3816081BB82B3846082BB0895D8
:0A00E4000E9455000E946B00FFCF40
:0400EE000C9400006E
:0400F2000E94340034
:0200F60008956B
:0200F800089569
:0200FA00089567
:00000001FF
