:100000000C942D000C9493000C9493000C9493008A
:100010000C9493000C9493000C9493000C94930014
:100020000C9493000C9493000C9493000C94570040
:100030000C9493000C9493000C9493000C949300F4
:100040000C9493000C9493000C9493000C949300E4
:100050000C94930000600061800011241FBECFE566
:10006000D8E0DEBFCDBFE4E5F0E040E017C0B591D9
:10007000A59135912591059107FD0CC0959185912C
:10008000EF01F92FE82F05900D92A217B307D9F7CA
:10009000FE0104C01D92A217B307E1F7E935F4078A
:0E00A00031F70E948E000C948300F894FFCF7D
:1000AE001F920F920FB60F9211248F939F938091F0
:1000BE006000833049F41092600086EB82BF95B3E6
:1000CE0081E0892785BB05C0809160008F5F80939A
:1000DE0060009F918F910F900FBE0F901F901895FB
:1000EE0013BE19BE83B7856083BF89B7816089BF90
:0800FE0086EB82BF789408959F
:10010600EC010E9498000E949700CE010E9499007F
:06011600CE010E949500DD
:0A011C000E94770081E084BBFFCF52
:040126000C94000035
:04012A000E945500DA
:02012E00089532
:02013000089530
:0201320008952E
:00000001FF
